{
  "contractName": "Market",
  "abi": [
    {
      "anonymous": false,
      "inputs": [
        {
          "indexed": false,
          "internalType": "uint256",
          "name": "listingId",
          "type": "uint256"
        },
        {
          "indexed": false,
          "internalType": "address",
          "name": "seller",
          "type": "address"
        }
      ],
      "name": "Cancelled",
      "type": "event"
    },
    {
      "anonymous": false,
      "inputs": [
        {
          "indexed": false,
          "internalType": "uint256",
          "name": "listingId",
          "type": "uint256"
        },
        {
          "indexed": false,
          "internalType": "address",
          "name": "seller",
          "type": "address"
        },
        {
          "indexed": false,
          "internalType": "address",
          "name": "token",
          "type": "address"
        },
        {
          "indexed": false,
          "internalType": "uint256",
          "name": "tokenId",
          "type": "uint256"
        },
        {
          "indexed": false,
          "internalType": "uint256",
          "name": "price",
          "type": "uint256"
        }
      ],
      "name": "Listed",
      "type": "event"
    },
    {
      "anonymous": false,
      "inputs": [
        {
          "indexed": false,
          "internalType": "uint256",
          "name": "listingId",
          "type": "uint256"
        },
        {
          "indexed": false,
          "internalType": "address",
          "name": "seller",
          "type": "address"
        },
        {
          "indexed": false,
          "internalType": "address",
          "name": "buyer",
          "type": "address"
        },
        {
          "indexed": false,
          "internalType": "uint256",
          "name": "tokenid",
          "type": "uint256"
        },
        {
          "indexed": false,
          "internalType": "uint256",
          "name": "price",
          "type": "uint256"
        }
      ],
      "name": "Sale",
      "type": "event"
    },
    {
      "inputs": [
        {
          "internalType": "address",
          "name": "token",
          "type": "address"
        },
        {
          "internalType": "uint256",
          "name": "tokenId",
          "type": "uint256"
        },
        {
          "internalType": "uint256",
          "name": "price",
          "type": "uint256"
        }
      ],
      "name": "listTOken",
      "outputs": [],
      "stateMutability": "nonpayable",
      "type": "function"
    },
    {
      "inputs": [
        {
          "internalType": "uint256",
          "name": "listingId",
          "type": "uint256"
        }
      ],
      "name": "getListing",
      "outputs": [
        {
          "components": [
            {
              "internalType": "enum Market.ListingStatus",
              "name": "status",
              "type": "uint8"
            },
            {
              "internalType": "address",
              "name": "seller",
              "type": "address"
            },
            {
              "internalType": "address",
              "name": "token",
              "type": "address"
            },
            {
              "internalType": "uint256",
              "name": "tokenId",
              "type": "uint256"
            },
            {
              "internalType": "uint256",
              "name": "price",
              "type": "uint256"
            }
          ],
          "internalType": "struct Market.Listing",
          "name": "",
          "type": "tuple"
        }
      ],
      "stateMutability": "view",
      "type": "function"
    },
    {
      "inputs": [
        {
          "internalType": "uint256",
          "name": "listingId",
          "type": "uint256"
        }
      ],
      "name": "buyToken",
      "outputs": [],
      "stateMutability": "payable",
      "type": "function"
    },
    {
      "inputs": [
        {
          "internalType": "uint256",
          "name": "listingId",
          "type": "uint256"
        }
      ],
      "name": "cancel",
      "outputs": [],
      "stateMutability": "nonpayable",
      "type": "function"
    }
  ],
  "bytecode": "0x6080604052600060015534801561001557600080fd5b50611068806100256000396000f3fe60806040526004361061005c576000357c010000000000000000000000000000000000000000000000000000000090048063107a274a146100615780631e6af0ea1461009e5780632d296bf1146100c757806340e58ee5146100e3575b600080fd5b34801561006d57600080fd5b5061008860048036038101906100839190610aa0565b61010c565b6040516100959190610bfc565b60405180910390f35b3480156100aa57600080fd5b506100c560048036038101906100c09190610c43565b610233565b005b6100e160048036038101906100dc9190610aa0565b610471565b005b3480156100ef57600080fd5b5061010a60048036038101906101059190610aa0565b610797565b005b6101146109f8565b6000808381526020019081526020016000206040518060a00160405290816000820160009054906101000a900460ff16600281111561015657610155610acd565b5b600281111561016857610167610acd565b5b81526020016000820160019054906101000a900473ffffffffffffffffffffffffffffffffffffffff1673ffffffffffffffffffffffffffffffffffffffff1673ffffffffffffffffffffffffffffffffffffffff1681526020016001820160009054906101000a900473ffffffffffffffffffffffffffffffffffffffff1673ffffffffffffffffffffffffffffffffffffffff1673ffffffffffffffffffffffffffffffffffffffff168152602001600282015481526020016003820154815250509050919050565b8273ffffffffffffffffffffffffffffffffffffffff166323b872dd3330856040518463ffffffff167c010000000000000000000000000000000000000000000000000000000002815260040161028c93929190610cb4565b600060405180830381600087803b1580156102a657600080fd5b505af11580156102ba573d6000803e3d6000fd5b5050505060006040518060a00160405280600060028111156102df576102de610acd565b5b81526020013373ffffffffffffffffffffffffffffffffffffffff1681526020018573ffffffffffffffffffffffffffffffffffffffff1681526020018481526020018381525090506001600081548092919061033b90610d1a565b919050555080600080600154815260200190815260200160002060008201518160000160006101000a81548160ff021916908360028111156103805761037f610acd565b5b021790555060208201518160000160016101000a81548173ffffffffffffffffffffffffffffffffffffffff021916908373ffffffffffffffffffffffffffffffffffffffff16021790555060408201518160010160006101000a81548173ffffffffffffffffffffffffffffffffffffffff021916908373ffffffffffffffffffffffffffffffffffffffff16021790555060608201518160020155608082015181600301559050507f723f73331eaee88eec7fc68ef60ab6ed15e4b90d0472b55eb92fa43910bab6dd60015433868686604051610463959493929190610d63565b60405180910390a150505050565b600080600083815260200190815260200160002090506000600281111561049b5761049a610acd565b5b8160000160009054906101000a900460ff1660028111156104bf576104be610acd565b5b146104ff576040517f08c379a00000000000000000000000000000000000000000000000000000000081526004016104f690610e13565b60405180910390fd5b8060000160019054906101000a900473ffffffffffffffffffffffffffffffffffffffff1673ffffffffffffffffffffffffffffffffffffffff163373ffffffffffffffffffffffffffffffffffffffff161415610592576040517f08c379a000000000000000000000000000000000000000000000000000000000815260040161058990610e7f565b60405180910390fd5b80600301543410156105d9576040517f08c379a00000000000000000000000000000000000000000000000000000000081526004016105d090610eeb565b60405180910390fd5b8060000160019054906101000a900473ffffffffffffffffffffffffffffffffffffffff1673ffffffffffffffffffffffffffffffffffffffff166108fc82600301549081150290604051600060405180830381858888f19350505050158015610647573d6000803e3d6000fd5b508060010160009054906101000a900473ffffffffffffffffffffffffffffffffffffffff1673ffffffffffffffffffffffffffffffffffffffff166323b872dd303384600201546040518463ffffffff167c01000000000000000000000000000000000000000000000000000000000281526004016106c993929190610cb4565b600060405180830381600087803b1580156106e357600080fd5b505af11580156106f7573d6000803e3d6000fd5b5050505060018160000160006101000a81548160ff0219169083600281111561072357610722610acd565b5b02179055507ff3debaf22196a6ddf52a60fa71058cd7edf5e25bb98f4e96c994a5d4a9b0dd3e828260000160019054906101000a900473ffffffffffffffffffffffffffffffffffffffff16338460020154856003015460405161078b959493929190610d63565b60405180910390a15050565b60008060008381526020019081526020016000209050600060028111156107c1576107c0610acd565b5b8160000160009054906101000a900460ff1660028111156107e5576107e4610acd565b5b14610825576040517f08c379a000000000000000000000000000000000000000000000000000000000815260040161081c90610f57565b60405180910390fd5b8060000160019054906101000a900473ffffffffffffffffffffffffffffffffffffffff1673ffffffffffffffffffffffffffffffffffffffff163373ffffffffffffffffffffffffffffffffffffffff16146108b7576040517f08c379a00000000000000000000000000000000000000000000000000000000081526004016108ae90610fe9565b60405180910390fd5b60028160000160006101000a81548160ff021916908360028111156108df576108de610acd565b5b02179055508060010160009054906101000a900473ffffffffffffffffffffffffffffffffffffffff1673ffffffffffffffffffffffffffffffffffffffff166323b872dd303384600201546040518463ffffffff167c010000000000000000000000000000000000000000000000000000000002815260040161096593929190610cb4565b600060405180830381600087803b15801561097f57600080fd5b505af1158015610993573d6000803e3d6000fd5b505050507f26deca31ff8139a06c52453ce8985d34f7648a6d9af1d283c4063d052c355a0f828260000160019054906101000a900473ffffffffffffffffffffffffffffffffffffffff166040516109ec929190611009565b60405180910390a15050565b6040518060a0016040528060006002811115610a1757610a16610acd565b5b8152602001600073ffffffffffffffffffffffffffffffffffffffff168152602001600073ffffffffffffffffffffffffffffffffffffffff16815260200160008152602001600081525090565b600080fd5b6000819050919050565b610a7d81610a6a565b8114610a8857600080fd5b50565b600081359050610a9a81610a74565b92915050565b600060208284031215610ab657610ab5610a65565b5b6000610ac484828501610a8b565b91505092915050565b7f4e487b7100000000000000000000000000000000000000000000000000000000600052602160045260246000fd5b60038110610b0d57610b0c610acd565b5b50565b6000819050610b1e82610afc565b919050565b6000610b2e82610b10565b9050919050565b610b3e81610b23565b82525050565b600073ffffffffffffffffffffffffffffffffffffffff82169050919050565b6000610b6f82610b44565b9050919050565b610b7f81610b64565b82525050565b610b8e81610a6a565b82525050565b60a082016000820151610baa6000850182610b35565b506020820151610bbd6020850182610b76565b506040820151610bd06040850182610b76565b506060820151610be36060850182610b85565b506080820151610bf66080850182610b85565b50505050565b600060a082019050610c116000830184610b94565b92915050565b610c2081610b64565b8114610c2b57600080fd5b50565b600081359050610c3d81610c17565b92915050565b600080600060608486031215610c5c57610c5b610a65565b5b6000610c6a86828701610c2e565b9350506020610c7b86828701610a8b565b9250506040610c8c86828701610a8b565b9150509250925092565b610c9f81610b64565b82525050565b610cae81610a6a565b82525050565b6000606082019050610cc96000830186610c96565b610cd66020830185610c96565b610ce36040830184610ca5565b949350505050565b7f4e487b7100000000000000000000000000000000000000000000000000000000600052601160045260246000fd5b6000610d2582610a6a565b91507fffffffffffffffffffffffffffffffffffffffffffffffffffffffffffffffff821415610d5857610d57610ceb565b5b600182019050919050565b600060a082019050610d786000830188610ca5565b610d856020830187610c96565b610d926040830186610c96565b610d9f6060830185610ca5565b610dac6080830184610ca5565b9695505050505050565b600082825260208201905092915050565b7f546f6b656e20686173206e6f74206265656e206c697374656421000000000000600082015250565b6000610dfd601a83610db6565b9150610e0882610dc7565b602082019050919050565b60006020820190508181036000830152610e2c81610df0565b9050919050565b7f596f752063616e6e6f742062757920796f7572206f776e204e46547300000000600082015250565b6000610e69601c83610db6565b9150610e7482610e33565b602082019050919050565b60006020820190508181036000830152610e9881610e5c565b9050919050565b7f496e73756666696369656e742046756e64730000000000000000000000000000600082015250565b6000610ed5601283610db6565b9150610ee082610e9f565b602082019050919050565b60006020820190508181036000830152610f0481610ec8565b9050919050565b7f417274206973206e6f74206c6973746564000000000000000000000000000000600082015250565b6000610f41601183610db6565b9150610f4c82610f0b565b602082019050919050565b60006020820190508181036000830152610f7081610f34565b9050919050565b7f596f7520617265206e6f7420617574686f72697a656420746f20756e6c69737460008201527f2074686973204e46540000000000000000000000000000000000000000000000602082015250565b6000610fd3602983610db6565b9150610fde82610f77565b604082019050919050565b6000602082019050818103600083015261100281610fc6565b9050919050565b600060408201905061101e6000830185610ca5565b61102b6020830184610c96565b939250505056fea2646970667358221220e5077286a3e228336a0b0a64deaa9fcff26b84e32ac0f1e3b3e324cbf9e744cf64736f6c634300080b0033",
  "immutableReferences": {},
  "source": "// SPDX-License-Identifier: MIT\r\npragma solidity >=0.4.22 <0.9.0;\r\nimport \"./IERC721.sol\";\r\n\r\ncontract Market {\r\n\r\n\tenum ListingStatus {Active, Sold , Cancelled }\r\n\r\n\tstruct Listing {\r\n\t\tListingStatus status;\r\n\t\taddress seller;\r\n\t\taddress token;\r\n\t\tuint tokenId;\r\n\t\tuint price;\r\n\t}\r\n\t// events for listing , selling and cancelling\r\n\tevent Listed (uint listingId ,address seller, address token, uint tokenId , uint price);\r\n\tevent Sale (uint listingId , address seller , address buyer , uint tokenid, uint price);\r\n\tevent Cancelled(uint listingId , address seller);\r\n\r\n\r\n\tmapping(uint => Listing) private _listings;\r\n\tuint private _listingId = 0;\r\n\r\n\r\n\r\n\tfunction listTOken (address token, uint tokenId , uint price) public {\r\n\t\tIERC721(token).transferFrom(msg.sender, address(this), tokenId);\r\n\r\n\t\tListing memory listing = Listing (ListingStatus.Active, msg.sender , token, tokenId , price);\r\n\t\t_listingId ++;\r\n\r\n\t\t_listings[_listingId] = listing;\r\n\t\temit Listed (_listingId , msg.sender , token , tokenId , price);\r\n\r\n\t}\r\n\r\n\r\n\t// function to get a listing \r\n\r\n\tfunction getListing (uint listingId) public view returns(Listing memory) {\r\n\t\treturn _listings[listingId];\r\n\r\n\t}\r\n\r\n\tfunction buyToken (uint listingId) external payable {\r\n\t\tListing storage listing = _listings[listingId];\r\n\t\trequire(listing.status == ListingStatus.Active , \"Token has not been listed!\");\r\n\t\trequire(msg.sender != listing.seller , \"You cannot buy your own NFTs\");\r\n\t\trequire(msg.value >= listing.price , \"Insufficient Funds\");\r\n\r\n\t\t// checks and ensure payment is made before assets are transfered and status is set to sold\r\n\t\tpayable(listing.seller).transfer(listing.price);\r\n\t\tIERC721(listing.token).transferFrom(address(this), msg.sender, listing.tokenId);\r\n\t\tlisting.status = ListingStatus.Sold;\r\n\r\n\t\temit Sale (listingId , listing.seller , msg.sender , listing.tokenId , listing.price);\r\n\t\t\r\n\t}\r\n\r\n\tfunction cancel (uint listingId) public {\r\n\t\tListing storage listing = _listings[listingId];\r\n\t\trequire(listing.status == ListingStatus.Active , \"Art is not listed\");\r\n\t\trequire(msg.sender == listing.seller, \"You are not authorized to unlist this NFT\");\r\n\r\n\t\tlisting.status = ListingStatus.Cancelled;\r\n\t\tIERC721(listing.token).transferFrom(address(this), msg.sender, listing.tokenId);\r\n\r\n\t\temit Cancelled(listingId, listing.seller);\r\n\r\n\t}\r\n}",
  "sourcePath": "C:\\Users\\Michael\\NFT Marketplace\\contracts\\Market.sol",
  "compiler": {
    "name": "solc",
    "version": "0.8.11+commit.d7f03943.Emscripten.clang"
  },
  "schemaVersion": "3.4.4",
  "updatedAt": "2022-01-11T11:17:01.200Z",
  "devdoc": {
    "kind": "dev",
    "methods": {},
    "version": 1
  },
  "userdoc": {
    "kind": "user",
    "methods": {},
    "version": 1
  }
}